{
  "contractName": "ImageRegister",
  "abi": [
    {
      "constant": true,
      "inputs": [
        {
          "name": "",
          "type": "address"
        },
        {
          "name": "",
          "type": "uint256"
        }
      ],
      "name": "ownerToImages",
      "outputs": [
        {
          "name": "ipfsHash",
          "type": "string"
        },
        {
          "name": "title",
          "type": "string"
        },
        {
          "name": "description",
          "type": "string"
        },
        {
          "name": "tags",
          "type": "string"
        },
        {
          "name": "uploadedOn",
          "type": "uint256"
        }
      ],
      "payable": false,
      "stateMutability": "view",
      "type": "function"
    },
    {
      "constant": false,
      "inputs": [],
      "name": "renounceOwnership",
      "outputs": [],
      "payable": false,
      "stateMutability": "nonpayable",
      "type": "function"
    },
    {
      "constant": false,
      "inputs": [],
      "name": "destroy",
      "outputs": [],
      "payable": false,
      "stateMutability": "nonpayable",
      "type": "function"
    },
    {
      "constant": true,
      "inputs": [],
      "name": "owner",
      "outputs": [
        {
          "name": "",
          "type": "address"
        }
      ],
      "payable": false,
      "stateMutability": "view",
      "type": "function"
    },
    {
      "constant": false,
      "inputs": [
        {
          "name": "_newOwner",
          "type": "address"
        }
      ],
      "name": "transferOwnership",
      "outputs": [],
      "payable": false,
      "stateMutability": "nonpayable",
      "type": "function"
    },
    {
      "constant": false,
      "inputs": [
        {
          "name": "_recipient",
          "type": "address"
        }
      ],
      "name": "destroyAndSend",
      "outputs": [],
      "payable": false,
      "stateMutability": "nonpayable",
      "type": "function"
    },
    {
      "payable": false,
      "stateMutability": "nonpayable",
      "type": "fallback"
    },
    {
      "anonymous": false,
      "inputs": [
        {
          "indexed": true,
          "name": "_owner",
          "type": "address"
        },
        {
          "indexed": false,
          "name": "_ipfsHash",
          "type": "string"
        },
        {
          "indexed": false,
          "name": "_title",
          "type": "string"
        },
        {
          "indexed": false,
          "name": "_description",
          "type": "string"
        },
        {
          "indexed": false,
          "name": "_tags",
          "type": "string"
        },
        {
          "indexed": false,
          "name": "_uploadedOn",
          "type": "uint256"
        }
      ],
      "name": "LogImageUploaded",
      "type": "event"
    },
    {
      "anonymous": false,
      "inputs": [
        {
          "indexed": true,
          "name": "_owner",
          "type": "address"
        },
        {
          "indexed": false,
          "name": "_stop",
          "type": "bool"
        }
      ],
      "name": "LogEmergencyStop",
      "type": "event"
    },
    {
      "anonymous": false,
      "inputs": [
        {
          "indexed": true,
          "name": "previousOwner",
          "type": "address"
        }
      ],
      "name": "OwnershipRenounced",
      "type": "event"
    },
    {
      "anonymous": false,
      "inputs": [
        {
          "indexed": true,
          "name": "previousOwner",
          "type": "address"
        },
        {
          "indexed": true,
          "name": "newOwner",
          "type": "address"
        }
      ],
      "name": "OwnershipTransferred",
      "type": "event"
    },
    {
      "constant": false,
      "inputs": [
        {
          "name": "_ipfsHash",
          "type": "string"
        },
        {
          "name": "_title",
          "type": "string"
        },
        {
          "name": "_description",
          "type": "string"
        },
        {
          "name": "_tags",
          "type": "string"
        }
      ],
      "name": "uploadImage",
      "outputs": [
        {
          "name": "_success",
          "type": "bool"
        }
      ],
      "payable": false,
      "stateMutability": "nonpayable",
      "type": "function"
    },
    {
      "constant": true,
      "inputs": [
        {
          "name": "_owner",
          "type": "address"
        }
      ],
      "name": "getImageCount",
      "outputs": [
        {
          "name": "",
          "type": "uint256"
        }
      ],
      "payable": false,
      "stateMutability": "view",
      "type": "function"
    },
    {
      "constant": true,
      "inputs": [
        {
          "name": "_owner",
          "type": "address"
        },
        {
          "name": "_index",
          "type": "uint8"
        }
      ],
      "name": "getImage",
      "outputs": [
        {
          "name": "_ipfsHash",
          "type": "string"
        },
        {
          "name": "_title",
          "type": "string"
        },
        {
          "name": "_description",
          "type": "string"
        },
        {
          "name": "_tags",
          "type": "string"
        },
        {
          "name": "_uploadedOn",
          "type": "uint256"
        }
      ],
      "payable": false,
      "stateMutability": "view",
      "type": "function"
    },
    {
      "constant": false,
      "inputs": [
        {
          "name": "_stop",
          "type": "bool"
        }
      ],
      "name": "emergencyStop",
      "outputs": [],
      "payable": false,
      "stateMutability": "nonpayable",
      "type": "function"
    }
  ],
  "bytecode": "0x60806040526000600260006101000a81548160ff021916908315150217905550336000806101000a81548173ffffffffffffffffffffffffffffffffffffffff021916908373ffffffffffffffffffffffffffffffffffffffff1602179055506117e08061006e6000396000f3006080604052600436106100a4576000357c0100000000000000000000000000000000000000000000000000000000900463ffffffff1680630ac62e02146100b3578063361fad3b146100e257806350e25c7214610139578063715018a61461034a57806383197ef0146103615780638da5cb5b14610378578063ef9588c9146103cf578063f2fde38b146105e3578063f5074f4114610626578063fdfc887314610669575b3480156100b057600080fd5b50005b3480156100bf57600080fd5b506100e06004803603810190808035151590602001909291905050506107bc565b005b3480156100ee57600080fd5b50610123600480360381019080803573ffffffffffffffffffffffffffffffffffffffff1690602001909291905050506108a7565b6040518082815260200191505060405180910390f35b34801561014557600080fd5b50610184600480360381019080803573ffffffffffffffffffffffffffffffffffffffff16906020019092919080359060200190929190505050610935565b604051808060200180602001806020018060200186815260200185810385528a818151815260200191508051906020019080838360005b838110156101d65780820151818401526020810190506101bb565b50505050905090810190601f1680156102035780820380516001836020036101000a031916815260200191505b50858103845289818151815260200191508051906020019080838360005b8381101561023c578082015181840152602081019050610221565b50505050905090810190601f1680156102695780820380516001836020036101000a031916815260200191505b50858103835288818151815260200191508051906020019080838360005b838110156102a2578082015181840152602081019050610287565b50505050905090810190601f1680156102cf5780820380516001836020036101000a031916815260200191505b50858103825287818151815260200191508051906020019080838360005b838110156103085780820151818401526020810190506102ed565b50505050905090810190601f1680156103355780820380516001836020036101000a031916815260200191505b50995050505050505050505060405180910390f35b34801561035657600080fd5b5061035f610be7565b005b34801561036d57600080fd5b50610376610ce9565b005b34801561038457600080fd5b5061038d610d7e565b604051808273ffffffffffffffffffffffffffffffffffffffff1673ffffffffffffffffffffffffffffffffffffffff16815260200191505060405180910390f35b3480156103db57600080fd5b5061041d600480360381019080803573ffffffffffffffffffffffffffffffffffffffff169060200190929190803560ff169060200190929190505050610da3565b604051808060200180602001806020018060200186815260200185810385528a818151815260200191508051906020019080838360005b8381101561046f578082015181840152602081019050610454565b50505050905090810190601f16801561049c5780820380516001836020036101000a031916815260200191505b50858103845289818151815260200191508051906020019080838360005b838110156104d55780820151818401526020810190506104ba565b50505050905090810190601f1680156105025780820380516001836020036101000a031916815260200191505b50858103835288818151815260200191508051906020019080838360005b8381101561053b578082015181840152602081019050610520565b50505050905090810190601f1680156105685780820380516001836020036101000a031916815260200191505b50858103825287818151815260200191508051906020019080838360005b838110156105a1578082015181840152602081019050610586565b50505050905090810190601f1680156105ce5780820380516001836020036101000a031916815260200191505b50995050505050505050505060405180910390f35b3480156105ef57600080fd5b50610624600480360381019080803573ffffffffffffffffffffffffffffffffffffffff16906020019092919050505061115b565b005b34801561063257600080fd5b50610667600480360381019080803573ffffffffffffffffffffffffffffffffffffffff1690602001909291905050506111c2565b005b34801561067557600080fd5b506107a2600480360381019080803590602001908201803590602001908080601f0160208091040260200160405190810160405280939291908181526020018383808284378201915050505050509192919290803590602001908201803590602001908080601f0160208091040260200160405190810160405280939291908181526020018383808284378201915050505050509192919290803590602001908201803590602001908080601f0160208091040260200160405190810160405280939291908181526020018383808284378201915050505050509192919290803590602001908201803590602001908080601f0160208091040260200160405190810160405280939291908181526020018383808284378201915050505050509192919290505050611236565b604051808215151515815260200191505060405180910390f35b6000809054906101000a900473ffffffffffffffffffffffffffffffffffffffff1673ffffffffffffffffffffffffffffffffffffffff163373ffffffffffffffffffffffffffffffffffffffff1614151561081757600080fd5b80600260006101000a81548160ff0219169083151502179055506000809054906101000a900473ffffffffffffffffffffffffffffffffffffffff1673ffffffffffffffffffffffffffffffffffffffff167f1fd8a6424996fcb73e71380685f86d34feb317dc811892630fd77cc70046e06a82604051808215151515815260200191505060405180910390a250565b6000600260009054906101000a900460ff161515156108c557600080fd5b60008273ffffffffffffffffffffffffffffffffffffffff16141515156108eb57600080fd5b600160008373ffffffffffffffffffffffffffffffffffffffff1673ffffffffffffffffffffffffffffffffffffffff168152602001908152602001600020805490509050919050565b60016020528160005260406000208181548110151561095057fe5b906000526020600020906005020160009150915050806000018054600181600116156101000203166002900480601f0160208091040260200160405190810160405280929190818152602001828054600181600116156101000203166002900480156109fd5780601f106109d2576101008083540402835291602001916109fd565b820191906000526020600020905b8154815290600101906020018083116109e057829003601f168201915b505050505090806001018054600181600116156101000203166002900480601f016020809104026020016040519081016040528092919081815260200182805460018160011615610100020316600290048015610a9b5780601f10610a7057610100808354040283529160200191610a9b565b820191906000526020600020905b815481529060010190602001808311610a7e57829003601f168201915b505050505090806002018054600181600116156101000203166002900480601f016020809104026020016040519081016040528092919081815260200182805460018160011615610100020316600290048015610b395780601f10610b0e57610100808354040283529160200191610b39565b820191906000526020600020905b815481529060010190602001808311610b1c57829003601f168201915b505050505090806003018054600181600116156101000203166002900480601f016020809104026020016040519081016040528092919081815260200182805460018160011615610100020316600290048015610bd75780601f10610bac57610100808354040283529160200191610bd7565b820191906000526020600020905b815481529060010190602001808311610bba57829003601f168201915b5050505050908060040154905085565b6000809054906101000a900473ffffffffffffffffffffffffffffffffffffffff1673ffffffffffffffffffffffffffffffffffffffff163373ffffffffffffffffffffffffffffffffffffffff16141515610c4257600080fd5b6000809054906101000a900473ffffffffffffffffffffffffffffffffffffffff1673ffffffffffffffffffffffffffffffffffffffff167ff8df31144d9c2f0f6b59d69b8b98abd5459d07f2742c4df920b25aae33c6482060405160405180910390a260008060006101000a81548173ffffffffffffffffffffffffffffffffffffffff021916908373ffffffffffffffffffffffffffffffffffffffff160217905550565b6000809054906101000a900473ffffffffffffffffffffffffffffffffffffffff1673ffffffffffffffffffffffffffffffffffffffff163373ffffffffffffffffffffffffffffffffffffffff16141515610d4457600080fd5b6000809054906101000a900473ffffffffffffffffffffffffffffffffffffffff1673ffffffffffffffffffffffffffffffffffffffff16ff5b6000809054906101000a900473ffffffffffffffffffffffffffffffffffffffff1681565b606080606080600080600260009054906101000a900460ff16151515610dc857600080fd5b60008873ffffffffffffffffffffffffffffffffffffffff1614151515610dee57600080fd5b60008760ff1610158015610e06575060ff8760ff1611155b1515610e1157600080fd5b6000600160008a73ffffffffffffffffffffffffffffffffffffffff1673ffffffffffffffffffffffffffffffffffffffff16815260200190815260200160002080549050111515610e6257600080fd5b600160008973ffffffffffffffffffffffffffffffffffffffff1673ffffffffffffffffffffffffffffffffffffffff1681526020019081526020016000208760ff16815481101515610eb157fe5b90600052602060002090600502019050806000018160010182600201836003018460040154848054600181600116156101000203166002900480601f016020809104026020016040519081016040528092919081815260200182805460018160011615610100020316600290048015610f6b5780601f10610f4057610100808354040283529160200191610f6b565b820191906000526020600020905b815481529060010190602001808311610f4e57829003601f168201915b50505050509450838054600181600116156101000203166002900480601f0160208091040260200160405190810160405280929190818152602001828054600181600116156101000203166002900480156110075780601f10610fdc57610100808354040283529160200191611007565b820191906000526020600020905b815481529060010190602001808311610fea57829003601f168201915b50505050509350828054600181600116156101000203166002900480601f0160208091040260200160405190810160405280929190818152602001828054600181600116156101000203166002900480156110a35780601f10611078576101008083540402835291602001916110a3565b820191906000526020600020905b81548152906001019060200180831161108657829003601f168201915b50505050509250818054600181600116156101000203166002900480601f01602080910402602001604051908101604052809291908181526020018280546001816001161561010002031660029004801561113f5780601f106111145761010080835404028352916020019161113f565b820191906000526020600020905b81548152906001019060200180831161112257829003601f168201915b5050505050915095509550955095509550509295509295909350565b6000809054906101000a900473ffffffffffffffffffffffffffffffffffffffff1673ffffffffffffffffffffffffffffffffffffffff163373ffffffffffffffffffffffffffffffffffffffff161415156111b657600080fd5b6111bf816115e5565b50565b6000809054906101000a900473ffffffffffffffffffffffffffffffffffffffff1673ffffffffffffffffffffffffffffffffffffffff163373ffffffffffffffffffffffffffffffffffffffff1614151561121d57600080fd5b8073ffffffffffffffffffffffffffffffffffffffff16ff5b6000806112416116df565b600260009054906101000a900460ff1615151561125d57600080fd5b602e875114151561126d57600080fd5b600086511180156112815750610100865111155b151561128c57600080fd5b610400855110151561129d57600080fd5b600084511180156112b15750610100845111155b15156112bc57600080fd5b42915060a060405190810160405280888152602001878152602001868152602001858152602001838152509050600160003373ffffffffffffffffffffffffffffffffffffffff1673ffffffffffffffffffffffffffffffffffffffff1681526020019081526020016000208190806001815401808255809150509060018203906000526020600020906005020160009091929091909150600082015181600001908051906020019061137092919061170f565b50602082015181600101908051906020019061138d92919061170f565b5060408201518160020190805190602001906113aa92919061170f565b5060608201518160030190805190602001906113c792919061170f565b50608082015181600401555050503373ffffffffffffffffffffffffffffffffffffffff167f4753b7d7d7b6713cb600756bd11cc8bf932ece70274edfbc01931256caaa63be8888888887604051808060200180602001806020018060200186815260200185810385528a818151815260200191508051906020019080838360005b83811015611464578082015181840152602081019050611449565b50505050905090810190601f1680156114915780820380516001836020036101000a031916815260200191505b50858103845289818151815260200191508051906020019080838360005b838110156114ca5780820151818401526020810190506114af565b50505050905090810190601f1680156114f75780820380516001836020036101000a031916815260200191505b50858103835288818151815260200191508051906020019080838360005b83811015611530578082015181840152602081019050611515565b50505050905090810190601f16801561155d5780820380516001836020036101000a031916815260200191505b50858103825287818151815260200191508051906020019080838360005b8381101561159657808201518184015260208101905061157b565b50505050905090810190601f1680156115c35780820380516001836020036101000a031916815260200191505b50995050505050505050505060405180910390a2600192505050949350505050565b600073ffffffffffffffffffffffffffffffffffffffff168173ffffffffffffffffffffffffffffffffffffffff161415151561162157600080fd5b8073ffffffffffffffffffffffffffffffffffffffff166000809054906101000a900473ffffffffffffffffffffffffffffffffffffffff1673ffffffffffffffffffffffffffffffffffffffff167f8be0079c531659141344cd1fd0a4f28419497f9722a3daafe3b4186f6b6457e060405160405180910390a3806000806101000a81548173ffffffffffffffffffffffffffffffffffffffff021916908373ffffffffffffffffffffffffffffffffffffffff16021790555050565b60a06040519081016040528060608152602001606081526020016060815260200160608152602001600081525090565b828054600181600116156101000203166002900490600052602060002090601f016020900481019282601f1061175057805160ff191683800117855561177e565b8280016001018555821561177e579182015b8281111561177d578251825591602001919060010190611762565b5b50905061178b919061178f565b5090565b6117b191905b808211156117ad576000816000905550600101611795565b5090565b905600a165627a7a72305820c016bcc0db7ed7070655472931e4253107d47660104f9ee5ee079eb0b2e35f850029",
  "source": "//SPDX-License-Identifier:MIT\npragma solidity ^0.4.24;\n\n// Base contract that can be destroyed by owner. \nimport \"openzeppelin-solidity/contracts/lifecycle/Destructible.sol\";\n\n/** \n * @title ImageRegister\n * @author Irvin M. Waldman \n * @notice This contract represents a registry of image ownership. \n * Due to storage limitations, images are stored on IPFS.  \n * The IPFS hash along with metadata are stored onchain.\n */\ncontract ImageRegister is Destructible {\n\n    /** \n    * @title Represents a single image which is owned by someone. \n    */\n    struct Image {\n        string ipfsHash;        // IPFS hash\n        string title;           // Image title\n        string description;     // Image description\n        string tags;            // Image tags in comma separated format\n        uint256 uploadedOn;     // Uploaded timestamp\n    }\n\n    // Maps owner to their images\n    mapping (address => Image[]) public ownerToImages;\n\n    // Used by Circuit Breaker pattern to switch contract on / off\n    bool private stopped = false;\n\n    /**\n    * @dev Indicates that a user has uploaded a new image\n    * @param _owner The owner of the image\n    * @param _ipfsHash The IPFS hash\n    * @param _title The image title\n    * @param _description The image description\n    * @param _tags The image tags\n    * @param _uploadedOn The upload timestamp\n    */\n    event LogImageUploaded(\n        address indexed _owner, \n        string _ipfsHash, \n        string _title, \n        string _description, \n        string _tags,\n        uint256 _uploadedOn\n    );\n\n    /**\n    * @dev Indicates that the owner has performed an emergency stop\n    * @param _owner The owner of the image\n    * @param _stop Indicates whether to stop or resume\n    */\n    event LogEmergencyStop(\n        address indexed _owner, \n        bool _stop\n    );\n\n    /**\n    * @dev Prevents execution in the case of an emergency\n    */\n    modifier stopInEmergency { \n        require(!stopped); \n        _;\n    }\n\n    /**  \n    * @dev This function is called for all messages sent to\n    * this contract (there is no other function).\n    * Sending Ether to this contract will cause an exception,\n    * because the fallback function does not have the `payable`\n    * modifier.\n    */\n    function() public {}\n\n    /** \n        * @notice associate an image entry with the owner i.e. sender address\n        * @dev Controlled by circuit breaker\n        * @param _ipfsHash The IPFS hash\n        * @param _title The image title\n        * @param _description The image description\n        * @param _tags The image tag(s)\n        */\n    function uploadImage(\n        string _ipfsHash, \n        string _title, \n        string _description, \n        string _tags\n    ) public stopInEmergency returns (bool _success) {\n            \n        require(bytes(_ipfsHash).length == 46);\n        require(bytes(_title).length > 0 && bytes(_title).length <= 256);\n        require(bytes(_description).length < 1024);\n        require(bytes(_tags).length > 0 && bytes(_tags).length <= 256);\n\n        uint256 uploadedOn = now;\n        Image memory image = Image(\n            _ipfsHash,\n            _title,\n            _description,\n            _tags,\n            uploadedOn\n        );\n\n        ownerToImages[msg.sender].push(image);\n\n        emit LogImageUploaded(\n            msg.sender,\n            _ipfsHash,\n            _title,\n            _description,\n            _tags,\n            uploadedOn\n        );\n\n        _success = true;\n    }\n\n    /** \n    * @notice Returns the number of images associated with the given address\n    * @dev Controlled by circuit breaker\n    * @param _owner The owner address\n    * @return The number of images associated with a given address\n    */\n    function getImageCount(address _owner) \n        public view \n        stopInEmergency \n        returns (uint256) \n    {\n        require(_owner != 0x0);\n        return ownerToImages[_owner].length;\n    }\n\n    /** \n    * @notice Returns the image at index in the ownership array\n    * @dev Controlled by circuit breaker\n    * @param _owner The owner address\n    * @param _index The index of the image to return\n    * @return _ipfsHash The IPFS hash\n    * @return _title The image title\n    * @return _description The image description\n    * @return _tags image Then image tags\n    * @return _uploadedOn The uploaded timestamp\n    */ \n    function getImage(address _owner, uint8 _index) \n        public stopInEmergency view returns (\n        string _ipfsHash, \n        string _title, \n        string _description, \n        string _tags,\n        uint256 _uploadedOn\n    ) {\n\n        require(_owner != 0x0);\n        require(_index >= 0 && _index <= 2**8 - 1);\n        require(ownerToImages[_owner].length > 0);\n\n        Image storage image = ownerToImages[_owner][_index];\n        \n        return (\n            image.ipfsHash, \n            image.title, \n            image.description, \n            image.tags, \n            image.uploadedOn\n        );\n    }\n\n    /**\n    * @notice Pause the contract. \n    * It stops execution if certain conditions are met and can be useful \n    * when new errors are discovered. \n    * @param _stop Switch the circuit breaker on or off\n    */\n    function emergencyStop(bool _stop) public onlyOwner {\n        stopped = _stop;\n        emit LogEmergencyStop(owner, _stop);\n    }\n}\n",
  "sourcePath": "D:\\source\\nodejs\\ipfs-image-dapp-master\\contracts\\ImageRegister.sol",
  "compiler": {
    "name": "solc",
    "version": "0.4.26+commit.4563c3fc.Emscripten.clang"
  },
  "schemaVersion": "3.4.3",
  "updatedAt": "2022-04-01T08:55:41.856Z",
  "networkType": "ethereum",
  "devdoc": {
    "author": "Irvin M. Waldman ",
    "methods": {
      "destroy()": {
        "details": "Transfers the current balance to the owner and terminates the contract."
      },
      "emergencyStop(bool)": {
        "params": {
          "_stop": "Switch the circuit breaker on or off"
        }
      },
      "getImage(address,uint8)": {
        "details": "Controlled by circuit breaker",
        "params": {
          "_index": "The index of the image to return",
          "_owner": "The owner address"
        },
        "return": "_ipfsHash The IPFS hash_title The image title_description The image description_tags image Then image tags_uploadedOn The uploaded timestamp"
      },
      "getImageCount(address)": {
        "details": "Controlled by circuit breaker",
        "params": {
          "_owner": "The owner address"
        },
        "return": "The number of images associated with a given address"
      },
      "renounceOwnership()": {
        "details": "Allows the current owner to relinquish control of the contract."
      },
      "transferOwnership(address)": {
        "details": "Allows the current owner to transfer control of the contract to a newOwner.",
        "params": {
          "_newOwner": "The address to transfer ownership to."
        }
      },
      "uploadImage(string,string,string,string)": {
        "details": "Controlled by circuit breaker",
        "params": {
          "_description": "The image description",
          "_ipfsHash": "The IPFS hash",
          "_tags": "The image tag(s)",
          "_title": "The image title"
        }
      }
    },
    "title": "ImageRegister"
  },
  "userdoc": {
    "methods": {
      "emergencyStop(bool)": {
        "notice": "Pause the contract.  It stops execution if certain conditions are met and can be useful  when new errors are discovered. "
      },
      "getImage(address,uint8)": {
        "notice": "Returns the image at index in the ownership array"
      },
      "getImageCount(address)": {
        "notice": "Returns the number of images associated with the given address"
      },
      "renounceOwnership()": {
        "notice": "Renouncing to ownership will leave the contract without an owner. It will not be possible to call the functions with the `onlyOwner` modifier anymore."
      },
      "uploadImage(string,string,string,string)": {
        "notice": "associate an image entry with the owner i.e. sender address"
      }
    }
  }
}