{
  "contractName": "ImageRegister",
  "abi": [
    {
      "constant": true,
      "inputs": [
        {
          "name": "",
          "type": "address"
        },
        {
          "name": "",
          "type": "uint256"
        }
      ],
      "name": "ownerToImages",
      "outputs": [
        {
          "name": "ipfsHash",
          "type": "string"
        },
        {
          "name": "title",
          "type": "string"
        },
        {
          "name": "description",
          "type": "string"
        },
        {
          "name": "tags",
          "type": "string"
        },
        {
          "name": "uploadedOn",
          "type": "uint256"
        }
      ],
      "payable": false,
      "stateMutability": "view",
      "type": "function"
    },
    {
      "constant": false,
      "inputs": [],
      "name": "renounceOwnership",
      "outputs": [],
      "payable": false,
      "stateMutability": "nonpayable",
      "type": "function"
    },
    {
      "constant": false,
      "inputs": [],
      "name": "destroy",
      "outputs": [],
      "payable": false,
      "stateMutability": "nonpayable",
      "type": "function"
    },
    {
      "constant": true,
      "inputs": [],
      "name": "owner",
      "outputs": [
        {
          "name": "",
          "type": "address"
        }
      ],
      "payable": false,
      "stateMutability": "view",
      "type": "function"
    },
    {
      "constant": false,
      "inputs": [
        {
          "name": "_newOwner",
          "type": "address"
        }
      ],
      "name": "transferOwnership",
      "outputs": [],
      "payable": false,
      "stateMutability": "nonpayable",
      "type": "function"
    },
    {
      "constant": false,
      "inputs": [
        {
          "name": "_recipient",
          "type": "address"
        }
      ],
      "name": "destroyAndSend",
      "outputs": [],
      "payable": false,
      "stateMutability": "nonpayable",
      "type": "function"
    },
    {
      "payable": false,
      "stateMutability": "nonpayable",
      "type": "fallback"
    },
    {
      "anonymous": false,
      "inputs": [
        {
          "indexed": true,
          "name": "_owner",
          "type": "address"
        },
        {
          "indexed": false,
          "name": "_ipfsHash",
          "type": "string"
        },
        {
          "indexed": false,
          "name": "_title",
          "type": "string"
        },
        {
          "indexed": false,
          "name": "_description",
          "type": "string"
        },
        {
          "indexed": false,
          "name": "_tags",
          "type": "string"
        },
        {
          "indexed": false,
          "name": "_uploadedOn",
          "type": "uint256"
        }
      ],
      "name": "LogImageUploaded",
      "type": "event"
    },
    {
      "anonymous": false,
      "inputs": [
        {
          "indexed": true,
          "name": "_owner",
          "type": "address"
        },
        {
          "indexed": false,
          "name": "_stop",
          "type": "bool"
        }
      ],
      "name": "LogEmergencyStop",
      "type": "event"
    },
    {
      "anonymous": false,
      "inputs": [
        {
          "indexed": true,
          "name": "previousOwner",
          "type": "address"
        }
      ],
      "name": "OwnershipRenounced",
      "type": "event"
    },
    {
      "anonymous": false,
      "inputs": [
        {
          "indexed": true,
          "name": "previousOwner",
          "type": "address"
        },
        {
          "indexed": true,
          "name": "newOwner",
          "type": "address"
        }
      ],
      "name": "OwnershipTransferred",
      "type": "event"
    },
    {
      "constant": false,
      "inputs": [
        {
          "name": "_ipfsHash",
          "type": "string"
        },
        {
          "name": "_title",
          "type": "string"
        },
        {
          "name": "_description",
          "type": "string"
        },
        {
          "name": "_tags",
          "type": "string"
        }
      ],
      "name": "uploadImage",
      "outputs": [
        {
          "name": "_success",
          "type": "bool"
        }
      ],
      "payable": false,
      "stateMutability": "nonpayable",
      "type": "function"
    },
    {
      "constant": false,
      "inputs": [
        {
          "name": "_sendAddress",
          "type": "address"
        },
        {
          "name": "_ipfsHash",
          "type": "string"
        },
        {
          "name": "_title",
          "type": "string"
        },
        {
          "name": "_description",
          "type": "string"
        },
        {
          "name": "_tags",
          "type": "string"
        }
      ],
      "name": "shareImage",
      "outputs": [
        {
          "name": "_success",
          "type": "bool"
        }
      ],
      "payable": false,
      "stateMutability": "nonpayable",
      "type": "function"
    },
    {
      "constant": true,
      "inputs": [
        {
          "name": "_owner",
          "type": "address"
        }
      ],
      "name": "getImageCount",
      "outputs": [
        {
          "name": "",
          "type": "uint256"
        }
      ],
      "payable": false,
      "stateMutability": "view",
      "type": "function"
    },
    {
      "constant": true,
      "inputs": [
        {
          "name": "_owner",
          "type": "address"
        },
        {
          "name": "_index",
          "type": "uint8"
        }
      ],
      "name": "getImage",
      "outputs": [
        {
          "name": "_ipfsHash",
          "type": "string"
        },
        {
          "name": "_title",
          "type": "string"
        },
        {
          "name": "_description",
          "type": "string"
        },
        {
          "name": "_tags",
          "type": "string"
        },
        {
          "name": "_uploadedOn",
          "type": "uint256"
        }
      ],
      "payable": false,
      "stateMutability": "view",
      "type": "function"
    },
    {
      "constant": false,
      "inputs": [
        {
          "name": "_stop",
          "type": "bool"
        }
      ],
      "name": "emergencyStop",
      "outputs": [],
      "payable": false,
      "stateMutability": "nonpayable",
      "type": "function"
    }
  ],
  "bytecode": "0x60806040526000600260006101000a81548160ff021916908315150217905550336000806101000a81548173ffffffffffffffffffffffffffffffffffffffff021916908373ffffffffffffffffffffffffffffffffffffffff160217905550611d0e8061006e6000396000f3006080604052600436106100af576000357c0100000000000000000000000000000000000000000000000000000000900463ffffffff1680630ac62e02146100be578063361fad3b146100ed57806350e25c7214610144578063715018a614610355578063722974671461036c57806383197ef0146104df5780638da5cb5b146104f6578063ef9588c91461054d578063f2fde38b14610761578063f5074f41146107a4578063fdfc8873146107e7575b3480156100bb57600080fd5b50005b3480156100ca57600080fd5b506100eb60048036038101908080351515906020019092919050505061093a565b005b3480156100f957600080fd5b5061012e600480360381019080803573ffffffffffffffffffffffffffffffffffffffff169060200190929190505050610a25565b6040518082815260200191505060405180910390f35b34801561015057600080fd5b5061018f600480360381019080803573ffffffffffffffffffffffffffffffffffffffff16906020019092919080359060200190929190505050610ab3565b604051808060200180602001806020018060200186815260200185810385528a818151815260200191508051906020019080838360005b838110156101e15780820151818401526020810190506101c6565b50505050905090810190601f16801561020e5780820380516001836020036101000a031916815260200191505b50858103845289818151815260200191508051906020019080838360005b8381101561024757808201518184015260208101905061022c565b50505050905090810190601f1680156102745780820380516001836020036101000a031916815260200191505b50858103835288818151815260200191508051906020019080838360005b838110156102ad578082015181840152602081019050610292565b50505050905090810190601f1680156102da5780820380516001836020036101000a031916815260200191505b50858103825287818151815260200191508051906020019080838360005b838110156103135780820151818401526020810190506102f8565b50505050905090810190601f1680156103405780820380516001836020036101000a031916815260200191505b50995050505050505050505060405180910390f35b34801561036157600080fd5b5061036a610d65565b005b34801561037857600080fd5b506104c5600480360381019080803573ffffffffffffffffffffffffffffffffffffffff169060200190929190803590602001908201803590602001908080601f0160208091040260200160405190810160405280939291908181526020018383808284378201915050505050509192919290803590602001908201803590602001908080601f0160208091040260200160405190810160405280939291908181526020018383808284378201915050505050509192919290803590602001908201803590602001908080601f0160208091040260200160405190810160405280939291908181526020018383808284378201915050505050509192919290803590602001908201803590602001908080601f0160208091040260200160405190810160405280939291908181526020018383808284378201915050505050509192919290505050610e67565b604051808215151515815260200191505060405180910390f35b3480156104eb57600080fd5b506104f4611217565b005b34801561050257600080fd5b5061050b6112ac565b604051808273ffffffffffffffffffffffffffffffffffffffff1673ffffffffffffffffffffffffffffffffffffffff16815260200191505060405180910390f35b34801561055957600080fd5b5061059b600480360381019080803573ffffffffffffffffffffffffffffffffffffffff169060200190929190803560ff1690602001909291905050506112d1565b604051808060200180602001806020018060200186815260200185810385528a818151815260200191508051906020019080838360005b838110156105ed5780820151818401526020810190506105d2565b50505050905090810190601f16801561061a5780820380516001836020036101000a031916815260200191505b50858103845289818151815260200191508051906020019080838360005b83811015610653578082015181840152602081019050610638565b50505050905090810190601f1680156106805780820380516001836020036101000a031916815260200191505b50858103835288818151815260200191508051906020019080838360005b838110156106b957808201518184015260208101905061069e565b50505050905090810190601f1680156106e65780820380516001836020036101000a031916815260200191505b50858103825287818151815260200191508051906020019080838360005b8381101561071f578082015181840152602081019050610704565b50505050905090810190601f16801561074c5780820380516001836020036101000a031916815260200191505b50995050505050505050505060405180910390f35b34801561076d57600080fd5b506107a2600480360381019080803573ffffffffffffffffffffffffffffffffffffffff169060200190929190505050611689565b005b3480156107b057600080fd5b506107e5600480360381019080803573ffffffffffffffffffffffffffffffffffffffff1690602001909291905050506116f0565b005b3480156107f357600080fd5b50610920600480360381019080803590602001908201803590602001908080601f0160208091040260200160405190810160405280939291908181526020018383808284378201915050505050509192919290803590602001908201803590602001908080601f0160208091040260200160405190810160405280939291908181526020018383808284378201915050505050509192919290803590602001908201803590602001908080601f0160208091040260200160405190810160405280939291908181526020018383808284378201915050505050509192919290803590602001908201803590602001908080601f0160208091040260200160405190810160405280939291908181526020018383808284378201915050505050509192919290505050611764565b604051808215151515815260200191505060405180910390f35b6000809054906101000a900473ffffffffffffffffffffffffffffffffffffffff1673ffffffffffffffffffffffffffffffffffffffff163373ffffffffffffffffffffffffffffffffffffffff1614151561099557600080fd5b80600260006101000a81548160ff0219169083151502179055506000809054906101000a900473ffffffffffffffffffffffffffffffffffffffff1673ffffffffffffffffffffffffffffffffffffffff167f1fd8a6424996fcb73e71380685f86d34feb317dc811892630fd77cc70046e06a82604051808215151515815260200191505060405180910390a250565b6000600260009054906101000a900460ff16151515610a4357600080fd5b60008273ffffffffffffffffffffffffffffffffffffffff1614151515610a6957600080fd5b600160008373ffffffffffffffffffffffffffffffffffffffff1673ffffffffffffffffffffffffffffffffffffffff168152602001908152602001600020805490509050919050565b600160205281600052604060002081815481101515610ace57fe5b906000526020600020906005020160009150915050806000018054600181600116156101000203166002900480601f016020809104026020016040519081016040528092919081815260200182805460018160011615610100020316600290048015610b7b5780601f10610b5057610100808354040283529160200191610b7b565b820191906000526020600020905b815481529060010190602001808311610b5e57829003601f168201915b505050505090806001018054600181600116156101000203166002900480601f016020809104026020016040519081016040528092919081815260200182805460018160011615610100020316600290048015610c195780601f10610bee57610100808354040283529160200191610c19565b820191906000526020600020905b815481529060010190602001808311610bfc57829003601f168201915b505050505090806002018054600181600116156101000203166002900480601f016020809104026020016040519081016040528092919081815260200182805460018160011615610100020316600290048015610cb75780601f10610c8c57610100808354040283529160200191610cb7565b820191906000526020600020905b815481529060010190602001808311610c9a57829003601f168201915b505050505090806003018054600181600116156101000203166002900480601f016020809104026020016040519081016040528092919081815260200182805460018160011615610100020316600290048015610d555780601f10610d2a57610100808354040283529160200191610d55565b820191906000526020600020905b815481529060010190602001808311610d3857829003601f168201915b5050505050908060040154905085565b6000809054906101000a900473ffffffffffffffffffffffffffffffffffffffff1673ffffffffffffffffffffffffffffffffffffffff163373ffffffffffffffffffffffffffffffffffffffff16141515610dc057600080fd5b6000809054906101000a900473ffffffffffffffffffffffffffffffffffffffff1673ffffffffffffffffffffffffffffffffffffffff167ff8df31144d9c2f0f6b59d69b8b98abd5459d07f2742c4df920b25aae33c6482060405160405180910390a260008060006101000a81548173ffffffffffffffffffffffffffffffffffffffff021916908373ffffffffffffffffffffffffffffffffffffffff160217905550565b600080610e72611c0d565b600260009054906101000a900460ff16151515610e8e57600080fd5b602e8751141515610e9e57600080fd5b60008651118015610eb25750610100865111155b1515610ebd57600080fd5b6104008551101515610ece57600080fd5b60008451118015610ee25750610100845111155b1515610eed57600080fd5b42915060a060405190810160405280888152602001878152602001868152602001858152602001838152509050600160008973ffffffffffffffffffffffffffffffffffffffff1673ffffffffffffffffffffffffffffffffffffffff16815260200190815260200160002081908060018154018082558091505090600182039060005260206000209060050201600090919290919091506000820151816000019080519060200190610fa1929190611c3d565b506020820151816001019080519060200190610fbe929190611c3d565b506040820151816002019080519060200190610fdb929190611c3d565b506060820151816003019080519060200190610ff8929190611c3d565b50608082015181600401555050508773ffffffffffffffffffffffffffffffffffffffff167f4753b7d7d7b6713cb600756bd11cc8bf932ece70274edfbc01931256caaa63be8888888887604051808060200180602001806020018060200186815260200185810385528a818151815260200191508051906020019080838360005b8381101561109557808201518184015260208101905061107a565b50505050905090810190601f1680156110c25780820380516001836020036101000a031916815260200191505b50858103845289818151815260200191508051906020019080838360005b838110156110fb5780820151818401526020810190506110e0565b50505050905090810190601f1680156111285780820380516001836020036101000a031916815260200191505b50858103835288818151815260200191508051906020019080838360005b83811015611161578082015181840152602081019050611146565b50505050905090810190601f16801561118e5780820380516001836020036101000a031916815260200191505b50858103825287818151815260200191508051906020019080838360005b838110156111c75780820151818401526020810190506111ac565b50505050905090810190601f1680156111f45780820380516001836020036101000a031916815260200191505b50995050505050505050505060405180910390a260019250505095945050505050565b6000809054906101000a900473ffffffffffffffffffffffffffffffffffffffff1673ffffffffffffffffffffffffffffffffffffffff163373ffffffffffffffffffffffffffffffffffffffff1614151561127257600080fd5b6000809054906101000a900473ffffffffffffffffffffffffffffffffffffffff1673ffffffffffffffffffffffffffffffffffffffff16ff5b6000809054906101000a900473ffffffffffffffffffffffffffffffffffffffff1681565b606080606080600080600260009054906101000a900460ff161515156112f657600080fd5b60008873ffffffffffffffffffffffffffffffffffffffff161415151561131c57600080fd5b60008760ff1610158015611334575060ff8760ff1611155b151561133f57600080fd5b6000600160008a73ffffffffffffffffffffffffffffffffffffffff1673ffffffffffffffffffffffffffffffffffffffff1681526020019081526020016000208054905011151561139057600080fd5b600160008973ffffffffffffffffffffffffffffffffffffffff1673ffffffffffffffffffffffffffffffffffffffff1681526020019081526020016000208760ff168154811015156113df57fe5b90600052602060002090600502019050806000018160010182600201836003018460040154848054600181600116156101000203166002900480601f0160208091040260200160405190810160405280929190818152602001828054600181600116156101000203166002900480156114995780601f1061146e57610100808354040283529160200191611499565b820191906000526020600020905b81548152906001019060200180831161147c57829003601f168201915b50505050509450838054600181600116156101000203166002900480601f0160208091040260200160405190810160405280929190818152602001828054600181600116156101000203166002900480156115355780601f1061150a57610100808354040283529160200191611535565b820191906000526020600020905b81548152906001019060200180831161151857829003601f168201915b50505050509350828054600181600116156101000203166002900480601f0160208091040260200160405190810160405280929190818152602001828054600181600116156101000203166002900480156115d15780601f106115a6576101008083540402835291602001916115d1565b820191906000526020600020905b8154815290600101906020018083116115b457829003601f168201915b50505050509250818054600181600116156101000203166002900480601f01602080910402602001604051908101604052809291908181526020018280546001816001161561010002031660029004801561166d5780601f106116425761010080835404028352916020019161166d565b820191906000526020600020905b81548152906001019060200180831161165057829003601f168201915b5050505050915095509550955095509550509295509295909350565b6000809054906101000a900473ffffffffffffffffffffffffffffffffffffffff1673ffffffffffffffffffffffffffffffffffffffff163373ffffffffffffffffffffffffffffffffffffffff161415156116e457600080fd5b6116ed81611b13565b50565b6000809054906101000a900473ffffffffffffffffffffffffffffffffffffffff1673ffffffffffffffffffffffffffffffffffffffff163373ffffffffffffffffffffffffffffffffffffffff1614151561174b57600080fd5b8073ffffffffffffffffffffffffffffffffffffffff16ff5b60008061176f611c0d565b600260009054906101000a900460ff1615151561178b57600080fd5b602e875114151561179b57600080fd5b600086511180156117af5750610100865111155b15156117ba57600080fd5b61040085511015156117cb57600080fd5b600084511180156117df5750610100845111155b15156117ea57600080fd5b42915060a060405190810160405280888152602001878152602001868152602001858152602001838152509050600160003373ffffffffffffffffffffffffffffffffffffffff1673ffffffffffffffffffffffffffffffffffffffff1681526020019081526020016000208190806001815401808255809150509060018203906000526020600020906005020160009091929091909150600082015181600001908051906020019061189e929190611c3d565b5060208201518160010190805190602001906118bb929190611c3d565b5060408201518160020190805190602001906118d8929190611c3d565b5060608201518160030190805190602001906118f5929190611c3d565b50608082015181600401555050503373ffffffffffffffffffffffffffffffffffffffff167f4753b7d7d7b6713cb600756bd11cc8bf932ece70274edfbc01931256caaa63be8888888887604051808060200180602001806020018060200186815260200185810385528a818151815260200191508051906020019080838360005b83811015611992578082015181840152602081019050611977565b50505050905090810190601f1680156119bf5780820380516001836020036101000a031916815260200191505b50858103845289818151815260200191508051906020019080838360005b838110156119f85780820151818401526020810190506119dd565b50505050905090810190601f168015611a255780820380516001836020036101000a031916815260200191505b50858103835288818151815260200191508051906020019080838360005b83811015611a5e578082015181840152602081019050611a43565b50505050905090810190601f168015611a8b5780820380516001836020036101000a031916815260200191505b50858103825287818151815260200191508051906020019080838360005b83811015611ac4578082015181840152602081019050611aa9565b50505050905090810190601f168015611af15780820380516001836020036101000a031916815260200191505b50995050505050505050505060405180910390a2600192505050949350505050565b600073ffffffffffffffffffffffffffffffffffffffff168173ffffffffffffffffffffffffffffffffffffffff1614151515611b4f57600080fd5b8073ffffffffffffffffffffffffffffffffffffffff166000809054906101000a900473ffffffffffffffffffffffffffffffffffffffff1673ffffffffffffffffffffffffffffffffffffffff167f8be0079c531659141344cd1fd0a4f28419497f9722a3daafe3b4186f6b6457e060405160405180910390a3806000806101000a81548173ffffffffffffffffffffffffffffffffffffffff021916908373ffffffffffffffffffffffffffffffffffffffff16021790555050565b60a06040519081016040528060608152602001606081526020016060815260200160608152602001600081525090565b828054600181600116156101000203166002900490600052602060002090601f016020900481019282601f10611c7e57805160ff1916838001178555611cac565b82800160010185558215611cac579182015b82811115611cab578251825591602001919060010190611c90565b5b509050611cb99190611cbd565b5090565b611cdf91905b80821115611cdb576000816000905550600101611cc3565b5090565b905600a165627a7a723058206e5bf63ce6a6dde713eedd9c75bfd60b9aad8a7438ac3a19c3ccb0a6603d1a490029",
  "source": "//SPDX-License-Identifier:MIT\npragma solidity ^0.4.24;\n\n// Base contract that can be destroyed by owner. \nimport \"openzeppelin-solidity/contracts/lifecycle/Destructible.sol\";\n\n\n\n\n\ncontract ImageRegister is Destructible {\n\n    /** \n    * @title Represents a single image which is owned by someone. \n    */\n    struct Image {\n        string ipfsHash;        // IPFS hash\n        string title;           // Image title\n        string description;     // Image description\n        string tags;            // Image tags in comma separated format\n        uint256 uploadedOn;     // Uploaded timestamp\n    }\n\n    // Maps owner to their images\n    mapping (address => Image[]) public ownerToImages;\n\n    // Used by Circuit Breaker pattern to switch contract on / off\n    bool private stopped = false;\n\n    /**\n    * @dev Indicates that a user has uploaded a new image\n    * @param _owner The owner of the image\n    * @param _ipfsHash The IPFS hash\n    * @param _title The image title\n    * @param _description The image description\n    * @param _tags The image tags\n    * @param _uploadedOn The upload timestamp\n    */\n    event LogImageUploaded(\n        address indexed _owner, \n        string _ipfsHash, \n        string _title, \n        string _description, \n        string _tags,\n        uint256 _uploadedOn\n    );\n\n    /**\n    * @dev Indicates that the owner has performed an emergency stop\n    * @param _owner The owner of the image\n    * @param _stop Indicates whether to stop or resume\n    */\n    event LogEmergencyStop(\n        address indexed _owner, \n        bool _stop\n    );\n\n    /**\n    * @dev Prevents execution in the case of an emergency\n    */\n    modifier stopInEmergency { \n        require(!stopped); \n        _;\n    }\n\n    /**  \n    * @dev This function is called for all messages sent to\n    * this contract (there is no other function).\n    * Sending Ether to this contract will cause an exception,\n    * because the fallback function does not have the `payable`\n    * modifier.\n    */\n    function() public {}\n\n    /** \n        * @notice associate an image entry with the owner i.e. sender address\n        * @dev Controlled by circuit breaker\n        * @param _ipfsHash The IPFS hash\n        * @param _title The image title\n        * @param _description The image description\n        * @param _tags The image tag(s)\n        */\n    function uploadImage(\n        string _ipfsHash, \n        string _title, \n        string _description, \n        string _tags\n    ) public stopInEmergency returns (bool _success) {\n            \n        require(bytes(_ipfsHash).length == 46);\n        require(bytes(_title).length > 0 && bytes(_title).length <= 256);\n        require(bytes(_description).length < 1024);\n        require(bytes(_tags).length > 0 && bytes(_tags).length <= 256);\n\n        uint256 uploadedOn = now;\n        Image memory image = Image(\n            _ipfsHash,\n            _title,\n            _description,\n            _tags,\n            uploadedOn\n        );\n\n        ownerToImages[msg.sender].push(image);\n\n        emit LogImageUploaded(\n            msg.sender,\n            _ipfsHash,\n            _title,\n            _description,\n            _tags,\n            uploadedOn\n        );\n\n        _success = true;\n    }\n\n    function shareImage(\n        address _sendAddress,\n        string _ipfsHash, \n        string _title, \n        string _description, \n        string _tags\n    ) public stopInEmergency returns (bool _success) {\n        \n        require(bytes(_ipfsHash).length == 46);\n        require(bytes(_title).length > 0 && bytes(_title).length <= 256);\n        require(bytes(_description).length < 1024);\n        require(bytes(_tags).length > 0 && bytes(_tags).length <= 256);\n\n        uint256 uploadedOn = now;\n        Image memory image = Image(\n            _ipfsHash,\n            _title,\n            _description,\n            _tags,\n            uploadedOn\n        );\n\n        ownerToImages[_sendAddress].push(image);\n\n        emit LogImageUploaded(\n            _sendAddress,\n            _ipfsHash,\n            _title,\n            _description,\n            _tags,\n            uploadedOn\n        );\n\n        _success = true;\n    }\n\n    /** \n    * @notice Returns the number of images associated with the given address\n    * @dev Controlled by circuit breaker\n    * @param _owner The owner address\n    * @return The number of images associated with a given address\n    */\n    function getImageCount(address _owner) \n        public view \n        stopInEmergency \n        returns (uint256) \n    {\n        require(_owner != 0x0);\n        return ownerToImages[_owner].length;\n    }\n\n    /** \n    * @notice Returns the image at index in the ownership array\n    * @dev Controlled by circuit breaker\n    * @param _owner The owner address\n    * @param _index The index of the image to return\n    * @return _ipfsHash The IPFS hash\n    * @return _title The image title\n    * @return _description The image description\n    * @return _tags image Then image tags\n    * @return _uploadedOn The uploaded timestamp\n    */ \n    function getImage(address _owner, uint8 _index) \n        public stopInEmergency view returns (\n        string _ipfsHash, \n        string _title, \n        string _description, \n        string _tags,\n        uint256 _uploadedOn\n    ) {\n\n        require(_owner != 0x0);\n        require(_index >= 0 && _index <= 2**8 - 1);\n        require(ownerToImages[_owner].length > 0);\n\n        Image storage image = ownerToImages[_owner][_index];\n        \n        return (\n            image.ipfsHash, \n            image.title, \n            image.description, \n            image.tags, \n            image.uploadedOn\n        );\n    }\n\n    /**\n    * @notice Pause the contract. \n    * It stops execution if certain conditions are met and can be useful \n    * when new errors are discovered. \n    * @param _stop Switch the circuit breaker on or off\n    */\n    function emergencyStop(bool _stop) public onlyOwner {\n        stopped = _stop;\n        emit LogEmergencyStop(owner, _stop);\n    }\n}\n",
  "sourcePath": "D:\\source\\nodejs\\ipfs-image-dapp-master\\contracts\\ImageRegister.sol",
  "compiler": {
    "name": "solc",
    "version": "0.4.26+commit.4563c3fc.Emscripten.clang"
  },
  "schemaVersion": "3.4.3",
  "updatedAt": "2022-04-10T10:16:01.557Z",
  "networkType": "ethereum",
  "devdoc": {
    "methods": {
      "destroy()": {
        "details": "Transfers the current balance to the owner and terminates the contract."
      },
      "emergencyStop(bool)": {
        "params": {
          "_stop": "Switch the circuit breaker on or off"
        }
      },
      "getImage(address,uint8)": {
        "details": "Controlled by circuit breaker",
        "params": {
          "_index": "The index of the image to return",
          "_owner": "The owner address"
        },
        "return": "_ipfsHash The IPFS hash_title The image title_description The image description_tags image Then image tags_uploadedOn The uploaded timestamp"
      },
      "getImageCount(address)": {
        "details": "Controlled by circuit breaker",
        "params": {
          "_owner": "The owner address"
        },
        "return": "The number of images associated with a given address"
      },
      "renounceOwnership()": {
        "details": "Allows the current owner to relinquish control of the contract."
      },
      "transferOwnership(address)": {
        "details": "Allows the current owner to transfer control of the contract to a newOwner.",
        "params": {
          "_newOwner": "The address to transfer ownership to."
        }
      },
      "uploadImage(string,string,string,string)": {
        "details": "Controlled by circuit breaker",
        "params": {
          "_description": "The image description",
          "_ipfsHash": "The IPFS hash",
          "_tags": "The image tag(s)",
          "_title": "The image title"
        }
      }
    }
  },
  "userdoc": {
    "methods": {
      "emergencyStop(bool)": {
        "notice": "Pause the contract.  It stops execution if certain conditions are met and can be useful  when new errors are discovered. "
      },
      "getImage(address,uint8)": {
        "notice": "Returns the image at index in the ownership array"
      },
      "getImageCount(address)": {
        "notice": "Returns the number of images associated with the given address"
      },
      "renounceOwnership()": {
        "notice": "Renouncing to ownership will leave the contract without an owner. It will not be possible to call the functions with the `onlyOwner` modifier anymore."
      },
      "uploadImage(string,string,string,string)": {
        "notice": "associate an image entry with the owner i.e. sender address"
      }
    }
  }
}